{
  "contractName": "SDV",
  "abi": [
    {
      "inputs": [],
      "stateMutability": "nonpayable",
      "type": "constructor"
    },
    {
      "inputs": [],
      "name": "accounOwner",
      "outputs": [
        {
          "internalType": "address",
          "name": "",
          "type": "address"
        }
      ],
      "stateMutability": "view",
      "type": "function"
    },
    {
      "inputs": [
        {
          "internalType": "address",
          "name": "",
          "type": "address"
        },
        {
          "internalType": "string",
          "name": "",
          "type": "string"
        }
      ],
      "name": "documents",
      "outputs": [
        {
          "internalType": "string",
          "name": "name",
          "type": "string"
        },
        {
          "internalType": "address",
          "name": "issuedby",
          "type": "address"
        },
        {
          "internalType": "enum SDV.DocType",
          "name": "docType",
          "type": "uint8"
        },
        {
          "internalType": "enum SDV.State",
          "name": "state",
          "type": "uint8"
        }
      ],
      "stateMutability": "view",
      "type": "function"
    },
    {
      "inputs": [
        {
          "internalType": "address",
          "name": "",
          "type": "address"
        },
        {
          "internalType": "address",
          "name": "",
          "type": "address"
        }
      ],
      "name": "kycRequests",
      "outputs": [
        {
          "internalType": "enum SDV.State",
          "name": "state",
          "type": "uint8"
        },
        {
          "internalType": "bool",
          "name": "canViewEducation",
          "type": "bool"
        },
        {
          "internalType": "bool",
          "name": "canViewEmployer",
          "type": "bool"
        },
        {
          "internalType": "bool",
          "name": "canViewAddress",
          "type": "bool"
        },
        {
          "internalType": "bool",
          "name": "canViewReferences",
          "type": "bool"
        },
        {
          "internalType": "bool",
          "name": "canViewContactDetails",
          "type": "bool"
        },
        {
          "internalType": "bool",
          "name": "canViewAadhar",
          "type": "bool"
        },
        {
          "internalType": "bool",
          "name": "canViewPan",
          "type": "bool"
        },
        {
          "internalType": "bool",
          "name": "canViewDL",
          "type": "bool"
        }
      ],
      "stateMutability": "view",
      "type": "function"
    },
    {
      "inputs": [
        {
          "internalType": "address",
          "name": "",
          "type": "address"
        }
      ],
      "name": "organisations",
      "outputs": [
        {
          "internalType": "string",
          "name": "oname",
          "type": "string"
        },
        {
          "internalType": "enum SDV.OrgType",
          "name": "otype",
          "type": "uint8"
        },
        {
          "internalType": "enum SDV.State",
          "name": "state",
          "type": "uint8"
        }
      ],
      "stateMutability": "view",
      "type": "function"
    },
    {
      "inputs": [
        {
          "internalType": "address",
          "name": "",
          "type": "address"
        }
      ],
      "name": "userDocuments",
      "outputs": [
        {
          "internalType": "string",
          "name": "",
          "type": "string"
        }
      ],
      "stateMutability": "view",
      "type": "function"
    },
    {
      "inputs": [
        {
          "internalType": "address",
          "name": "",
          "type": "address"
        }
      ],
      "name": "users",
      "outputs": [
        {
          "internalType": "string",
          "name": "uname",
          "type": "string"
        },
        {
          "internalType": "enum SDV.State",
          "name": "state",
          "type": "uint8"
        },
        {
          "internalType": "string",
          "name": "permanentAddress",
          "type": "string"
        },
        {
          "internalType": "string",
          "name": "currentAddress",
          "type": "string"
        },
        {
          "internalType": "string",
          "name": "email",
          "type": "string"
        },
        {
          "internalType": "string",
          "name": "phone",
          "type": "string"
        },
        {
          "internalType": "string",
          "name": "refEmail",
          "type": "string"
        },
        {
          "internalType": "address",
          "name": "createdBy",
          "type": "address"
        }
      ],
      "stateMutability": "view",
      "type": "function"
    },
    {
      "inputs": [
        {
          "internalType": "address",
          "name": "_userAddress",
          "type": "address"
        },
        {
          "internalType": "string",
          "name": "_name",
          "type": "string"
        },
        {
          "internalType": "string",
          "name": "_pAddress",
          "type": "string"
        },
        {
          "internalType": "string",
          "name": "_cAddress",
          "type": "string"
        },
        {
          "internalType": "string",
          "name": "_email",
          "type": "string"
        },
        {
          "internalType": "string",
          "name": "_phone",
          "type": "string"
        },
        {
          "internalType": "string",
          "name": "_refEmail",
          "type": "string"
        }
      ],
      "name": "addNewCustomer",
      "outputs": [
        {
          "internalType": "bool",
          "name": "success",
          "type": "bool"
        }
      ],
      "stateMutability": "nonpayable",
      "type": "function"
    },
    {
      "inputs": [
        {
          "internalType": "address",
          "name": "_oAddress",
          "type": "address"
        },
        {
          "internalType": "string",
          "name": "_name",
          "type": "string"
        },
        {
          "internalType": "enum SDV.OrgType",
          "name": "_type",
          "type": "uint8"
        }
      ],
      "name": "addNewOrg",
      "outputs": [
        {
          "internalType": "bool",
          "name": "success",
          "type": "bool"
        }
      ],
      "stateMutability": "nonpayable",
      "type": "function"
    },
    {
      "inputs": [
        {
          "internalType": "address",
          "name": "_uaddress",
          "type": "address"
        }
      ],
      "name": "verifyCustomer",
      "outputs": [
        {
          "internalType": "bool",
          "name": "success",
          "type": "bool"
        }
      ],
      "stateMutability": "nonpayable",
      "type": "function"
    },
    {
      "inputs": [
        {
          "internalType": "address",
          "name": "_uaddress",
          "type": "address"
        },
        {
          "internalType": "string",
          "name": "_docId",
          "type": "string"
        }
      ],
      "name": "verifyDocument",
      "outputs": [
        {
          "internalType": "bool",
          "name": "success",
          "type": "bool"
        }
      ],
      "stateMutability": "nonpayable",
      "type": "function"
    },
    {
      "inputs": [
        {
          "internalType": "address",
          "name": "_uaddress",
          "type": "address"
        },
        {
          "internalType": "string",
          "name": "_docId",
          "type": "string"
        }
      ],
      "name": "rejectDocument",
      "outputs": [
        {
          "internalType": "bool",
          "name": "success",
          "type": "bool"
        }
      ],
      "stateMutability": "nonpayable",
      "type": "function"
    },
    {
      "inputs": [
        {
          "internalType": "address",
          "name": "_uAddress",
          "type": "address"
        }
      ],
      "name": "sendBgvRequest",
      "outputs": [
        {
          "internalType": "bool",
          "name": "success",
          "type": "bool"
        }
      ],
      "stateMutability": "nonpayable",
      "type": "function"
    },
    {
      "inputs": [
        {
          "internalType": "address",
          "name": "_uAddress",
          "type": "address"
        }
      ],
      "name": "checkBgvStatus",
      "outputs": [
        {
          "internalType": "enum SDV.State",
          "name": "",
          "type": "uint8"
        }
      ],
      "stateMutability": "view",
      "type": "function"
    },
    {
      "inputs": [
        {
          "internalType": "address",
          "name": "_userAddress",
          "type": "address"
        }
      ],
      "name": "getUserBasicDetails",
      "outputs": [
        {
          "internalType": "string",
          "name": "",
          "type": "string"
        },
        {
          "internalType": "enum SDV.State",
          "name": "",
          "type": "uint8"
        },
        {
          "internalType": "string",
          "name": "",
          "type": "string"
        },
        {
          "internalType": "string",
          "name": "",
          "type": "string"
        },
        {
          "internalType": "string",
          "name": "",
          "type": "string"
        },
        {
          "internalType": "string",
          "name": "",
          "type": "string"
        },
        {
          "internalType": "string",
          "name": "",
          "type": "string"
        }
      ],
      "stateMutability": "view",
      "type": "function"
    },
    {
      "inputs": [
        {
          "internalType": "address",
          "name": "_userAddress",
          "type": "address"
        },
        {
          "internalType": "string",
          "name": "docId",
          "type": "string"
        }
      ],
      "name": "getUserDocument",
      "outputs": [
        {
          "internalType": "string",
          "name": "",
          "type": "string"
        },
        {
          "internalType": "enum SDV.DocType",
          "name": "",
          "type": "uint8"
        },
        {
          "internalType": "enum SDV.State",
          "name": "",
          "type": "uint8"
        }
      ],
      "stateMutability": "view",
      "type": "function"
    },
    {
      "inputs": [
        {
          "internalType": "string",
          "name": "docId",
          "type": "string"
        }
      ],
      "name": "getMyDocument",
      "outputs": [
        {
          "internalType": "string",
          "name": "",
          "type": "string"
        },
        {
          "internalType": "enum SDV.DocType",
          "name": "",
          "type": "uint8"
        },
        {
          "internalType": "enum SDV.State",
          "name": "",
          "type": "uint8"
        }
      ],
      "stateMutability": "view",
      "type": "function"
    },
    {
      "inputs": [],
      "name": "getMyBasicDetails",
      "outputs": [
        {
          "internalType": "string",
          "name": "",
          "type": "string"
        },
        {
          "internalType": "enum SDV.State",
          "name": "",
          "type": "uint8"
        },
        {
          "internalType": "string",
          "name": "",
          "type": "string"
        },
        {
          "internalType": "string",
          "name": "",
          "type": "string"
        },
        {
          "internalType": "string",
          "name": "",
          "type": "string"
        },
        {
          "internalType": "string",
          "name": "",
          "type": "string"
        },
        {
          "internalType": "string",
          "name": "",
          "type": "string"
        }
      ],
      "stateMutability": "view",
      "type": "function"
    },
    {
      "inputs": [
        {
          "internalType": "address",
          "name": "_oAddress",
          "type": "address"
        }
      ],
      "name": "InitiateVerificationRequest",
      "outputs": [
        {
          "internalType": "bool",
          "name": "success",
          "type": "bool"
        }
      ],
      "stateMutability": "nonpayable",
      "type": "function"
    },
    {
      "inputs": [
        {
          "internalType": "string",
          "name": "_name",
          "type": "string"
        },
        {
          "internalType": "string",
          "name": "_pAddress",
          "type": "string"
        },
        {
          "internalType": "string",
          "name": "_cAddress",
          "type": "string"
        },
        {
          "internalType": "string",
          "name": "_phone",
          "type": "string"
        },
        {
          "internalType": "string",
          "name": "_refEmail",
          "type": "string"
        }
      ],
      "name": "updateCustomer",
      "outputs": [
        {
          "internalType": "bool",
          "name": "success",
          "type": "bool"
        }
      ],
      "stateMutability": "nonpayable",
      "type": "function"
    },
    {
      "inputs": [
        {
          "internalType": "string",
          "name": "_docName",
          "type": "string"
        },
        {
          "internalType": "address",
          "name": "_IssuedBy",
          "type": "address"
        },
        {
          "internalType": "enum SDV.DocType",
          "name": "_doctype",
          "type": "uint8"
        },
        {
          "internalType": "string",
          "name": "_docHash",
          "type": "string"
        }
      ],
      "name": "addDocument",
      "outputs": [
        {
          "internalType": "bool",
          "name": "success",
          "type": "bool"
        }
      ],
      "stateMutability": "nonpayable",
      "type": "function"
    },
    {
      "inputs": [
        {
          "internalType": "string",
          "name": "_docHash",
          "type": "string"
        }
      ],
      "name": "removeDocument",
      "outputs": [
        {
          "internalType": "bool",
          "name": "success",
          "type": "bool"
        }
      ],
      "stateMutability": "nonpayable",
      "type": "function"
    },
    {
      "inputs": [
        {
          "internalType": "address",
          "name": "_oAddress",
          "type": "address"
        },
        {
          "internalType": "bool",
          "name": "_canViewEducation",
          "type": "bool"
        },
        {
          "internalType": "bool",
          "name": "_canViewEmployer",
          "type": "bool"
        },
        {
          "internalType": "bool",
          "name": "_canViewAddress",
          "type": "bool"
        },
        {
          "internalType": "bool",
          "name": "_canViewReferences",
          "type": "bool"
        },
        {
          "internalType": "bool",
          "name": "_canViewContactDetails",
          "type": "bool"
        },
        {
          "internalType": "bool",
          "name": "_canViewAadhar",
          "type": "bool"
        },
        {
          "internalType": "bool",
          "name": "_canViewPan",
          "type": "bool"
        },
        {
          "internalType": "bool",
          "name": "_canViewDL",
          "type": "bool"
        }
      ],
      "name": "approveBgvRequest",
      "outputs": [
        {
          "internalType": "bool",
          "name": "success",
          "type": "bool"
        }
      ],
      "stateMutability": "nonpayable",
      "type": "function"
    },
    {
      "inputs": [
        {
          "internalType": "address",
          "name": "_oAddress",
          "type": "address"
        }
      ],
      "name": "rejectBgvRequest",
      "outputs": [
        {
          "internalType": "bool",
          "name": "success",
          "type": "bool"
        }
      ],
      "stateMutability": "nonpayable",
      "type": "function"
    }
  ],
  "bytecode": "0x608060405234801561001057600080fd5b50336000806101000a81548173ffffffffffffffffffffffffffffffffffffffff021916908373ffffffffffffffffffffffffffffffffffffffff16021790555061575880620000616000396000f3fe608060405234801561001057600080fd5b506004361061014d5760003560e01c806359fe7ed9116100c3578063b5cd4f481161007c578063b5cd4f4814610478578063c4346694146104a8578063daa6b8f1146104e0578063dde51f6d14610510578063e7270e5c14610540578063f7e77e2d146105725761014d565b806359fe7ed914610348578063641ee9d51461037e5780639258b3d4146103ae57806395fd2db9146103de5780639e834fd914610411578063a87430ba146104415761014d565b80632e6d1703116101155780632e6d17031461023657806332a2a2cc14610254578063360d8ebf14610284578063380765a7146102b657806343e4f982146102e857806347756d03146103185761014d565b80630948e61f146101525780631aa6b16b146101825780631b2fcdcd146101a65780631f6423ce146101d65780632062838814610206575b600080fd5b61016c6004803603810190610167919061484f565b6105a2565b60405161017991906148c6565b60405180910390f35b61018a6106ee565b60405161019d97969594939291906149e0565b60405180910390f35b6101c060048036038101906101bb9190614a9e565b610c3a565b6040516101cd91906148c6565b60405180910390f35b6101f060048036038101906101eb9190614b39565b610e8c565b6040516101fd91906148c6565b60405180910390f35b610220600480360381019061021b9190614c03565b6115ac565b60405161022d91906148c6565b60405180910390f35b61023e611941565b60405161024b9190614c3f565b60405180910390f35b61026e60048036038101906102699190614c03565b611965565b60405161027b9190614c5a565b60405180910390f35b61029e60048036038101906102999190614c03565b611ab4565b6040516102ad93929190614cbd565b60405180910390f35b6102d060048036038101906102cb9190614cfb565b611b80565b6040516102df93929190614d8c565b60405180910390f35b61030260048036038101906102fd9190614c03565b611e23565b60405161030f91906148c6565b60405180910390f35b610332600480360381019061032d9190614dca565b612082565b60405161033f91906148c6565b60405180910390f35b610362600480360381019061035d9190614c03565b612367565b60405161037597969594939291906149e0565b60405180910390f35b6103986004803603810190610393919061484f565b612bd6565b6040516103a591906148c6565b60405180910390f35b6103c860048036038101906103c39190614c03565b612d22565b6040516103d59190614ed1565b60405180910390f35b6103f860048036038101906103f3919061484f565b612dc2565b6040516104089493929190614ef3565b60405180910390f35b61042b60048036038101906104269190614c03565b612ed7565b60405161043891906148c6565b60405180910390f35b61045b60048036038101906104569190614c03565b6131b6565b60405161046f989796959493929190614f3f565b60405180910390f35b610492600480360381019061048d919061500c565b61355b565b60405161049f91906148c6565b60405180910390f35b6104c260048036038101906104bd91906150ab565b6137a0565b6040516104d7999897969594939291906150eb565b60405180910390f35b6104fa60048036038101906104f59190614c03565b613870565b60405161050791906148c6565b60405180910390f35b61052a60048036038101906105259190614cfb565b61399f565b60405161053791906148c6565b60405180910390f35b61055a6004803603810190610555919061484f565b613b20565b60405161056993929190614d8c565b60405180910390f35b61058c60048036038101906105879190615178565b614321565b60405161059991906148c6565b60405180910390f35b600033600060038111156105b9576105b8614969565b5b600260008373ffffffffffffffffffffffffffffffffffffffff1673ffffffffffffffffffffffffffffffffffffffff16815260200190815260200160002060010160019054906101000a900460ff16600381111561061b5761061a614969565b5b141561065c576040517f08c379a00000000000000000000000000000000000000000000000000000000081526004016106539061530e565b60405180910390fd5b6003600460008673ffffffffffffffffffffffffffffffffffffffff1673ffffffffffffffffffffffffffffffffffffffff168152602001908152602001600020846040516106ab919061536a565b908152602001604051809103902060010160156101000a81548160ff021916908360038111156106de576106dd614969565b5b0217905550600191505092915050565b606060006060806060806060336000600381111561070f5761070e614969565b5b600160008373ffffffffffffffffffffffffffffffffffffffff1673ffffffffffffffffffffffffffffffffffffffff16815260200190815260200160002060010160009054906101000a900460ff16600381111561077157610770614969565b5b14156107b2576040517f08c379a00000000000000000000000000000000000000000000000000000000081526004016107a9906153cd565b60405180910390fd5b6000600160003373ffffffffffffffffffffffffffffffffffffffff1673ffffffffffffffffffffffffffffffffffffffff1681526020019081526020016000206040518061010001604052908160008201805461080f9061541c565b80601f016020809104026020016040519081016040528092919081815260200182805461083b9061541c565b80156108885780601f1061085d57610100808354040283529160200191610888565b820191906000526020600020905b81548152906001019060200180831161086b57829003601f168201915b505050505081526020016001820160009054906101000a900460ff1660038111156108b6576108b5614969565b5b60038111156108c8576108c7614969565b5b81526020016002820180546108dc9061541c565b80601f01602080910402602001604051908101604052809291908181526020018280546109089061541c565b80156109555780601f1061092a57610100808354040283529160200191610955565b820191906000526020600020905b81548152906001019060200180831161093857829003601f168201915b5050505050815260200160038201805461096e9061541c565b80601f016020809104026020016040519081016040528092919081815260200182805461099a9061541c565b80156109e75780601f106109bc576101008083540402835291602001916109e7565b820191906000526020600020905b8154815290600101906020018083116109ca57829003601f168201915b50505050508152602001600482018054610a009061541c565b80601f0160208091040260200160405190810160405280929190818152602001828054610a2c9061541c565b8015610a795780601f10610a4e57610100808354040283529160200191610a79565b820191906000526020600020905b815481529060010190602001808311610a5c57829003601f168201915b50505050508152602001600582018054610a929061541c565b80601f0160208091040260200160405190810160405280929190818152602001828054610abe9061541c565b8015610b0b5780601f10610ae057610100808354040283529160200191610b0b565b820191906000526020600020905b815481529060010190602001808311610aee57829003601f168201915b50505050508152602001600682018054610b249061541c565b80601f0160208091040260200160405190810160405280929190818152602001828054610b509061541c565b8015610b9d5780601f10610b7257610100808354040283529160200191610b9d565b820191906000526020600020905b815481529060010190602001808311610b8057829003601f168201915b505050505081526020016007820160009054906101000a900473ffffffffffffffffffffffffffffffffffffffff1673ffffffffffffffffffffffffffffffffffffffff1673ffffffffffffffffffffffffffffffffffffffff16815250509050806000015181602001518260400151836060015184608001518560a001518660c001519850985098509850985098509850505090919293949596565b60003373ffffffffffffffffffffffffffffffffffffffff1660008054906101000a900473ffffffffffffffffffffffffffffffffffffffff1673ffffffffffffffffffffffffffffffffffffffff1614610cca576040517f08c379a0000000000000000000000000000000000000000000000000000000008152600401610cc19061549a565b60405180910390fd5b8360006003811115610cdf57610cde614969565b5b600260008373ffffffffffffffffffffffffffffffffffffffff1673ffffffffffffffffffffffffffffffffffffffff16815260200190815260200160002060010160019054906101000a900460ff166003811115610d4157610d40614969565b5b14610d81576040517f08c379a0000000000000000000000000000000000000000000000000000000008152600401610d7890615506565b60405180910390fd5b6040518060600160405280858152602001846006811115610da557610da4614969565b5b815260200160026003811115610dbe57610dbd614969565b5b815250600260008773ffffffffffffffffffffffffffffffffffffffff1673ffffffffffffffffffffffffffffffffffffffff1681526020019081526020016000206000820151816000019080519060200190610e1c9291906145b4565b5060208201518160010160006101000a81548160ff02191690836006811115610e4857610e47614969565b5b021790555060408201518160010160016101000a81548160ff02191690836003811115610e7857610e77614969565b5b021790555090505060019150509392505050565b60003360006003811115610ea357610ea2614969565b5b600160008373ffffffffffffffffffffffffffffffffffffffff1673ffffffffffffffffffffffffffffffffffffffff16815260200190815260200160002060010160009054906101000a900460ff166003811115610f0557610f04614969565b5b1415610f46576040517f08c379a0000000000000000000000000000000000000000000000000000000008152600401610f3d906153cd565b60405180910390fd5b60006003811115610f5a57610f59614969565b5b600360003373ffffffffffffffffffffffffffffffffffffffff1673ffffffffffffffffffffffffffffffffffffffff16815260200190815260200160002060008d73ffffffffffffffffffffffffffffffffffffffff1673ffffffffffffffffffffffffffffffffffffffff16815260200190815260200160002060000160009054906101000a900460ff166003811115610ff957610ff8614969565b5b141561103a576040517f08c379a000000000000000000000000000000000000000000000000000000000815260040161103190615572565b60405180910390fd5b6002600360003373ffffffffffffffffffffffffffffffffffffffff1673ffffffffffffffffffffffffffffffffffffffff16815260200190815260200160002060008d73ffffffffffffffffffffffffffffffffffffffff1673ffffffffffffffffffffffffffffffffffffffff16815260200190815260200160002060000160006101000a81548160ff021916908360038111156110dd576110dc614969565b5b021790555089600360003373ffffffffffffffffffffffffffffffffffffffff1673ffffffffffffffffffffffffffffffffffffffff16815260200190815260200160002060008d73ffffffffffffffffffffffffffffffffffffffff1673ffffffffffffffffffffffffffffffffffffffff16815260200190815260200160002060000160016101000a81548160ff02191690831515021790555088600360003373ffffffffffffffffffffffffffffffffffffffff1673ffffffffffffffffffffffffffffffffffffffff16815260200190815260200160002060008d73ffffffffffffffffffffffffffffffffffffffff1673ffffffffffffffffffffffffffffffffffffffff16815260200190815260200160002060000160026101000a81548160ff02191690831515021790555087600360003373ffffffffffffffffffffffffffffffffffffffff1673ffffffffffffffffffffffffffffffffffffffff16815260200190815260200160002060008d73ffffffffffffffffffffffffffffffffffffffff1673ffffffffffffffffffffffffffffffffffffffff16815260200190815260200160002060000160036101000a81548160ff02191690831515021790555086600360003373ffffffffffffffffffffffffffffffffffffffff1673ffffffffffffffffffffffffffffffffffffffff16815260200190815260200160002060008d73ffffffffffffffffffffffffffffffffffffffff1673ffffffffffffffffffffffffffffffffffffffff16815260200190815260200160002060000160046101000a81548160ff02191690831515021790555085600360003373ffffffffffffffffffffffffffffffffffffffff1673ffffffffffffffffffffffffffffffffffffffff16815260200190815260200160002060008d73ffffffffffffffffffffffffffffffffffffffff1673ffffffffffffffffffffffffffffffffffffffff16815260200190815260200160002060000160056101000a81548160ff02191690831515021790555084600360003373ffffffffffffffffffffffffffffffffffffffff1673ffffffffffffffffffffffffffffffffffffffff16815260200190815260200160002060008d73ffffffffffffffffffffffffffffffffffffffff1673ffffffffffffffffffffffffffffffffffffffff16815260200190815260200160002060000160066101000a81548160ff02191690831515021790555083600360003373ffffffffffffffffffffffffffffffffffffffff1673ffffffffffffffffffffffffffffffffffffffff16815260200190815260200160002060008d73ffffffffffffffffffffffffffffffffffffffff1673ffffffffffffffffffffffffffffffffffffffff16815260200190815260200160002060000160076101000a81548160ff02191690831515021790555082600360003373ffffffffffffffffffffffffffffffffffffffff1673ffffffffffffffffffffffffffffffffffffffff16815260200190815260200160002060008d73ffffffffffffffffffffffffffffffffffffffff1673ffffffffffffffffffffffffffffffffffffffff16815260200190815260200160002060000160086101000a81548160ff02191690831515021790555060019150509998505050505050505050565b600033600060038111156115c3576115c2614969565b5b600260008373ffffffffffffffffffffffffffffffffffffffff1673ffffffffffffffffffffffffffffffffffffffff16815260200190815260200160002060010160019054906101000a900460ff16600381111561162557611624614969565b5b1415611666576040517f08c379a000000000000000000000000000000000000000000000000000000000815260040161165d9061530e565b60405180910390fd5b6002600381111561167a57611679614969565b5b600160008573ffffffffffffffffffffffffffffffffffffffff1673ffffffffffffffffffffffffffffffffffffffff16815260200190815260200160002060010160009054906101000a900460ff1660038111156116dc576116db614969565b5b1461171c576040517f08c379a000000000000000000000000000000000000000000000000000000000815260040161171390615604565b60405180910390fd5b6040518061012001604052806001600381111561173c5761173b614969565b5b815260200160001515815260200160001515815260200160001515815260200160001515815260200160001515815260200160001515815260200160001515815260200160001515815250600360008573ffffffffffffffffffffffffffffffffffffffff1673ffffffffffffffffffffffffffffffffffffffff16815260200190815260200160002060003373ffffffffffffffffffffffffffffffffffffffff1673ffffffffffffffffffffffffffffffffffffffff16815260200190815260200160002060008201518160000160006101000a81548160ff0219169083600381111561182e5761182d614969565b5b021790555060208201518160000160016101000a81548160ff02191690831515021790555060408201518160000160026101000a81548160ff02191690831515021790555060608201518160000160036101000a81548160ff02191690831515021790555060808201518160000160046101000a81548160ff02191690831515021790555060a08201518160000160056101000a81548160ff02191690831515021790555060c08201518160000160066101000a81548160ff02191690831515021790555060e08201518160000160076101000a81548160ff0219169083151502179055506101008201518160000160086101000a81548160ff0219169083151502179055509050506001915050919050565b60008054906101000a900473ffffffffffffffffffffffffffffffffffffffff1681565b6000336000600381111561197c5761197b614969565b5b600260008373ffffffffffffffffffffffffffffffffffffffff1673ffffffffffffffffffffffffffffffffffffffff16815260200190815260200160002060010160019054906101000a900460ff1660038111156119de576119dd614969565b5b1415611a1f576040517f08c379a0000000000000000000000000000000000000000000000000000000008152600401611a169061530e565b60405180910390fd5b600360008473ffffffffffffffffffffffffffffffffffffffff1673ffffffffffffffffffffffffffffffffffffffff16815260200190815260200160002060003373ffffffffffffffffffffffffffffffffffffffff1673ffffffffffffffffffffffffffffffffffffffff16815260200190815260200160002060000160009054906101000a900460ff16915050919050565b6002602052806000526040600020600091509050806000018054611ad79061541c565b80601f0160208091040260200160405190810160405280929190818152602001828054611b039061541c565b8015611b505780601f10611b2557610100808354040283529160200191611b50565b820191906000526020600020905b815481529060010190602001808311611b3357829003601f168201915b5050505050908060010160009054906101000a900460ff16908060010160019054906101000a900460ff16905083565b60606000803360006003811115611b9a57611b99614969565b5b600160008373ffffffffffffffffffffffffffffffffffffffff1673ffffffffffffffffffffffffffffffffffffffff16815260200190815260200160002060010160009054906101000a900460ff166003811115611bfc57611bfb614969565b5b1415611c3d576040517f08c379a0000000000000000000000000000000000000000000000000000000008152600401611c34906153cd565b60405180910390fd5b6000600460003373ffffffffffffffffffffffffffffffffffffffff1673ffffffffffffffffffffffffffffffffffffffff16815260200190815260200160002086604051611c8c919061536a565b9081526020016040518091039020604051806080016040529081600082018054611cb59061541c565b80601f0160208091040260200160405190810160405280929190818152602001828054611ce19061541c565b8015611d2e5780601f10611d0357610100808354040283529160200191611d2e565b820191906000526020600020905b815481529060010190602001808311611d1157829003601f168201915b505050505081526020016001820160009054906101000a900473ffffffffffffffffffffffffffffffffffffffff1673ffffffffffffffffffffffffffffffffffffffff1673ffffffffffffffffffffffffffffffffffffffff1681526020016001820160149054906101000a900460ff166005811115611db257611db1614969565b5b6005811115611dc457611dc3614969565b5b81526020016001820160159054906101000a900460ff166003811115611ded57611dec614969565b5b6003811115611dff57611dfe614969565b5b81525050905080600001518160400151826060015194509450945050509193909250565b60003360006003811115611e3a57611e39614969565b5b600160008373ffffffffffffffffffffffffffffffffffffffff1673ffffffffffffffffffffffffffffffffffffffff16815260200190815260200160002060010160009054906101000a900460ff166003811115611e9c57611e9b614969565b5b1415611edd576040517f08c379a0000000000000000000000000000000000000000000000000000000008152600401611ed4906153cd565b60405180910390fd5b60006003811115611ef157611ef0614969565b5b600360003373ffffffffffffffffffffffffffffffffffffffff1673ffffffffffffffffffffffffffffffffffffffff16815260200190815260200160002060008573ffffffffffffffffffffffffffffffffffffffff1673ffffffffffffffffffffffffffffffffffffffff16815260200190815260200160002060000160009054906101000a900460ff166003811115611f9057611f8f614969565b5b1415611fd1576040517f08c379a0000000000000000000000000000000000000000000000000000000008152600401611fc890615572565b60405180910390fd5b60038060003373ffffffffffffffffffffffffffffffffffffffff1673ffffffffffffffffffffffffffffffffffffffff16815260200190815260200160002060008573ffffffffffffffffffffffffffffffffffffffff1673ffffffffffffffffffffffffffffffffffffffff16815260200190815260200160002060000160006101000a81548160ff0219169083600381111561207357612072614969565b5b02179055506001915050919050565b6000336000600381111561209957612098614969565b5b600160008373ffffffffffffffffffffffffffffffffffffffff1673ffffffffffffffffffffffffffffffffffffffff16815260200190815260200160002060010160009054906101000a900460ff1660038111156120fb576120fa614969565b5b141561213c576040517f08c379a0000000000000000000000000000000000000000000000000000000008152600401612133906153cd565b60405180910390fd5b86600160003373ffffffffffffffffffffffffffffffffffffffff1673ffffffffffffffffffffffffffffffffffffffff16815260200190815260200160002060000190805190602001906121929291906145b4565b5085600160003373ffffffffffffffffffffffffffffffffffffffff1673ffffffffffffffffffffffffffffffffffffffff16815260200190815260200160002060020190805190602001906121e99291906145b4565b5084600160003373ffffffffffffffffffffffffffffffffffffffff1673ffffffffffffffffffffffffffffffffffffffff16815260200190815260200160002060030190805190602001906122409291906145b4565b5083600160003373ffffffffffffffffffffffffffffffffffffffff1673ffffffffffffffffffffffffffffffffffffffff16815260200190815260200160002060050190805190602001906122979291906145b4565b5082600160003373ffffffffffffffffffffffffffffffffffffffff1673ffffffffffffffffffffffffffffffffffffffff16815260200190815260200160002060060190805190602001906122ee9291906145b4565b5060018060003373ffffffffffffffffffffffffffffffffffffffff1673ffffffffffffffffffffffffffffffffffffffff16815260200190815260200160002060010160006101000a81548160ff0219169083600381111561235457612353614969565b5b0217905550600191505095945050505050565b606060006060806060806060336000600381111561238857612387614969565b5b600260008373ffffffffffffffffffffffffffffffffffffffff1673ffffffffffffffffffffffffffffffffffffffff16815260200190815260200160002060010160019054906101000a900460ff1660038111156123ea576123e9614969565b5b141561242b576040517f08c379a00000000000000000000000000000000000000000000000000000000081526004016124229061530e565b60405180910390fd5b6002600381111561243f5761243e614969565b5b600360008b73ffffffffffffffffffffffffffffffffffffffff1673ffffffffffffffffffffffffffffffffffffffff16815260200190815260200160002060003373ffffffffffffffffffffffffffffffffffffffff1673ffffffffffffffffffffffffffffffffffffffff16815260200190815260200160002060000160009054906101000a900460ff1660038111156124de576124dd614969565b5b1461251e576040517f08c379a000000000000000000000000000000000000000000000000000000000815260040161251590615696565b60405180910390fd5b6000600160008b73ffffffffffffffffffffffffffffffffffffffff1673ffffffffffffffffffffffffffffffffffffffff1681526020019081526020016000206040518061010001604052908160008201805461257b9061541c565b80601f01602080910402602001604051908101604052809291908181526020018280546125a79061541c565b80156125f45780601f106125c9576101008083540402835291602001916125f4565b820191906000526020600020905b8154815290600101906020018083116125d757829003601f168201915b505050505081526020016001820160009054906101000a900460ff16600381111561262257612621614969565b5b600381111561263457612633614969565b5b81526020016002820180546126489061541c565b80601f01602080910402602001604051908101604052809291908181526020018280546126749061541c565b80156126c15780601f10612696576101008083540402835291602001916126c1565b820191906000526020600020905b8154815290600101906020018083116126a457829003601f168201915b505050505081526020016003820180546126da9061541c565b80601f01602080910402602001604051908101604052809291908181526020018280546127069061541c565b80156127535780601f1061272857610100808354040283529160200191612753565b820191906000526020600020905b81548152906001019060200180831161273657829003601f168201915b5050505050815260200160048201805461276c9061541c565b80601f01602080910402602001604051908101604052809291908181526020018280546127989061541c565b80156127e55780601f106127ba576101008083540402835291602001916127e5565b820191906000526020600020905b8154815290600101906020018083116127c857829003601f168201915b505050505081526020016005820180546127fe9061541c565b80601f016020809104026020016040519081016040528092919081815260200182805461282a9061541c565b80156128775780601f1061284c57610100808354040283529160200191612877565b820191906000526020600020905b81548152906001019060200180831161285a57829003601f168201915b505050505081526020016006820180546128909061541c565b80601f01602080910402602001604051908101604052809291908181526020018280546128bc9061541c565b80156129095780601f106128de57610100808354040283529160200191612909565b820191906000526020600020905b8154815290600101906020018083116128ec57829003601f168201915b505050505081526020016007820160009054906101000a900473ffffffffffffffffffffffffffffffffffffffff1673ffffffffffffffffffffffffffffffffffffffff1673ffffffffffffffffffffffffffffffffffffffff16815250509050600360008b73ffffffffffffffffffffffffffffffffffffffff1673ffffffffffffffffffffffffffffffffffffffff16815260200190815260200160002060003373ffffffffffffffffffffffffffffffffffffffff1673ffffffffffffffffffffffffffffffffffffffff16815260200190815260200160002060000160039054906101000a900460ff16612a2c576040518060200160405280600081525081604001819052506040518060200160405280600081525081606001819052505b600360008b73ffffffffffffffffffffffffffffffffffffffff1673ffffffffffffffffffffffffffffffffffffffff16815260200190815260200160002060003373ffffffffffffffffffffffffffffffffffffffff1673ffffffffffffffffffffffffffffffffffffffff16815260200190815260200160002060000160059054906101000a900460ff16612aee57604051806020016040528060008152508160800181905250604051806020016040528060008152508160a001819052505b600360008b73ffffffffffffffffffffffffffffffffffffffff1673ffffffffffffffffffffffffffffffffffffffff16815260200190815260200160002060003373ffffffffffffffffffffffffffffffffffffffff1673ffffffffffffffffffffffffffffffffffffffff16815260200190815260200160002060000160049054906101000a900460ff16612b9857604051806020016040528060008152508160c001819052505b806000015181602001518260400151836060015184608001518560a001518660c0015198509850985098509850985098505050919395979092949650565b60003360006003811115612bed57612bec614969565b5b600260008373ffffffffffffffffffffffffffffffffffffffff1673ffffffffffffffffffffffffffffffffffffffff16815260200190815260200160002060010160019054906101000a900460ff166003811115612c4f57612c4e614969565b5b1415612c90576040517f08c379a0000000000000000000000000000000000000000000000000000000008152600401612c879061530e565b60405180910390fd5b6002600460008673ffffffffffffffffffffffffffffffffffffffff1673ffffffffffffffffffffffffffffffffffffffff16815260200190815260200160002084604051612cdf919061536a565b908152602001604051809103902060010160156101000a81548160ff02191690836003811115612d1257612d11614969565b5b0217905550600191505092915050565b60056020528060005260406000206000915090508054612d419061541c565b80601f0160208091040260200160405190810160405280929190818152602001828054612d6d9061541c565b8015612dba5780601f10612d8f57610100808354040283529160200191612dba565b820191906000526020600020905b815481529060010190602001808311612d9d57829003601f168201915b505050505081565b60046020528160005260406000208180516020810182018051848252602083016020850120818352809550505050505060009150915050806000018054612e089061541c565b80601f0160208091040260200160405190810160405280929190818152602001828054612e349061541c565b8015612e815780601f10612e5657610100808354040283529160200191612e81565b820191906000526020600020905b815481529060010190602001808311612e6457829003601f168201915b5050505050908060010160009054906101000a900473ffffffffffffffffffffffffffffffffffffffff16908060010160149054906101000a900460ff16908060010160159054906101000a900460ff16905084565b60003360006003811115612eee57612eed614969565b5b600160008373ffffffffffffffffffffffffffffffffffffffff1673ffffffffffffffffffffffffffffffffffffffff16815260200190815260200160002060010160009054906101000a900460ff166003811115612f5057612f4f614969565b5b1415612f91576040517f08c379a0000000000000000000000000000000000000000000000000000000008152600401612f88906153cd565b60405180910390fd5b60405180610120016040528060026003811115612fb157612fb0614969565b5b815260200160011515815260200160011515815260200160011515815260200160011515815260200160011515815260200160011515815260200160011515815260200160011515815250600360003373ffffffffffffffffffffffffffffffffffffffff1673ffffffffffffffffffffffffffffffffffffffff16815260200190815260200160002060008573ffffffffffffffffffffffffffffffffffffffff1673ffffffffffffffffffffffffffffffffffffffff16815260200190815260200160002060008201518160000160006101000a81548160ff021916908360038111156130a3576130a2614969565b5b021790555060208201518160000160016101000a81548160ff02191690831515021790555060408201518160000160026101000a81548160ff02191690831515021790555060608201518160000160036101000a81548160ff02191690831515021790555060808201518160000160046101000a81548160ff02191690831515021790555060a08201518160000160056101000a81548160ff02191690831515021790555060c08201518160000160066101000a81548160ff02191690831515021790555060e08201518160000160076101000a81548160ff0219169083151502179055506101008201518160000160086101000a81548160ff0219169083151502179055509050506001915050919050565b60016020528060005260406000206000915090508060000180546131d99061541c565b80601f01602080910402602001604051908101604052809291908181526020018280546132059061541c565b80156132525780601f1061322757610100808354040283529160200191613252565b820191906000526020600020905b81548152906001019060200180831161323557829003601f168201915b5050505050908060010160009054906101000a900460ff169080600201805461327a9061541c565b80601f01602080910402602001604051908101604052809291908181526020018280546132a69061541c565b80156132f35780601f106132c8576101008083540402835291602001916132f3565b820191906000526020600020905b8154815290600101906020018083116132d657829003601f168201915b5050505050908060030180546133089061541c565b80601f01602080910402602001604051908101604052809291908181526020018280546133349061541c565b80156133815780601f1061335657610100808354040283529160200191613381565b820191906000526020600020905b81548152906001019060200180831161336457829003601f168201915b5050505050908060040180546133969061541c565b80601f01602080910402602001604051908101604052809291908181526020018280546133c29061541c565b801561340f5780601f106133e45761010080835404028352916020019161340f565b820191906000526020600020905b8154815290600101906020018083116133f257829003601f168201915b5050505050908060050180546134249061541c565b80601f01602080910402602001604051908101604052809291908181526020018280546134509061541c565b801561349d5780601f106134725761010080835404028352916020019161349d565b820191906000526020600020905b81548152906001019060200180831161348057829003601f168201915b5050505050908060060180546134b29061541c565b80601f01602080910402602001604051908101604052809291908181526020018280546134de9061541c565b801561352b5780601f106135005761010080835404028352916020019161352b565b820191906000526020600020905b81548152906001019060200180831161350e57829003601f168201915b5050505050908060070160009054906101000a900473ffffffffffffffffffffffffffffffffffffffff16905088565b6000336000600381111561357257613571614969565b5b600160008373ffffffffffffffffffffffffffffffffffffffff1673ffffffffffffffffffffffffffffffffffffffff16815260200190815260200160002060010160009054906101000a900460ff1660038111156135d4576135d3614969565b5b1415613615576040517f08c379a000000000000000000000000000000000000000000000000000000000815260040161360c906153cd565b60405180910390fd5b60405180608001604052808781526020018673ffffffffffffffffffffffffffffffffffffffff16815260200185600581111561365557613654614969565b5b81526020016001600381111561366e5761366d614969565b5b815250600460003373ffffffffffffffffffffffffffffffffffffffff1673ffffffffffffffffffffffffffffffffffffffff168152602001908152602001600020846040516136be919061536a565b908152602001604051809103902060008201518160000190805190602001906136e89291906145b4565b5060208201518160010160006101000a81548173ffffffffffffffffffffffffffffffffffffffff021916908373ffffffffffffffffffffffffffffffffffffffff16021790555060408201518160010160146101000a81548160ff0219169083600581111561375b5761375a614969565b5b021790555060608201518160010160156101000a81548160ff0219169083600381111561378b5761378a614969565b5b02179055509050506001915050949350505050565b6003602052816000526040600020602052806000526040600020600091509150508060000160009054906101000a900460ff16908060000160019054906101000a900460ff16908060000160029054906101000a900460ff16908060000160039054906101000a900460ff16908060000160049054906101000a900460ff16908060000160059054906101000a900460ff16908060000160069054906101000a900460ff16908060000160079054906101000a900460ff16908060000160089054906101000a900460ff16905089565b6000336000600381111561388757613886614969565b5b600260008373ffffffffffffffffffffffffffffffffffffffff1673ffffffffffffffffffffffffffffffffffffffff16815260200190815260200160002060010160019054906101000a900460ff1660038111156138e9576138e8614969565b5b141561392a576040517f08c379a00000000000000000000000000000000000000000000000000000000081526004016139219061530e565b60405180910390fd5b6002600160008573ffffffffffffffffffffffffffffffffffffffff1673ffffffffffffffffffffffffffffffffffffffff16815260200190815260200160002060010160006101000a81548160ff021916908360038111156139905761398f614969565b5b02179055506001915050919050565b600033600060038111156139b6576139b5614969565b5b600160008373ffffffffffffffffffffffffffffffffffffffff1673ffffffffffffffffffffffffffffffffffffffff16815260200190815260200160002060010160009054906101000a900460ff166003811115613a1857613a17614969565b5b1415613a59576040517f08c379a0000000000000000000000000000000000000000000000000000000008152600401613a50906153cd565b60405180910390fd5b600460003373ffffffffffffffffffffffffffffffffffffffff1673ffffffffffffffffffffffffffffffffffffffff16815260200190815260200160002083604051613aa6919061536a565b908152602001604051809103902060008082016000613ac5919061463a565b6001820160006101000a81549073ffffffffffffffffffffffffffffffffffffffff02191690556001820160146101000a81549060ff02191690556001820160156101000a81549060ff021916905550506001915050919050565b60606000803360006003811115613b3a57613b39614969565b5b600260008373ffffffffffffffffffffffffffffffffffffffff1673ffffffffffffffffffffffffffffffffffffffff16815260200190815260200160002060010160019054906101000a900460ff166003811115613b9c57613b9b614969565b5b1415613bdd576040517f08c379a0000000000000000000000000000000000000000000000000000000008152600401613bd49061530e565b60405180910390fd5b60026003811115613bf157613bf0614969565b5b600360008873ffffffffffffffffffffffffffffffffffffffff1673ffffffffffffffffffffffffffffffffffffffff16815260200190815260200160002060003373ffffffffffffffffffffffffffffffffffffffff1673ffffffffffffffffffffffffffffffffffffffff16815260200190815260200160002060000160009054906101000a900460ff166003811115613c9057613c8f614969565b5b14613cd0576040517f08c379a0000000000000000000000000000000000000000000000000000000008152600401613cc790615696565b60405180910390fd5b6000600460008873ffffffffffffffffffffffffffffffffffffffff1673ffffffffffffffffffffffffffffffffffffffff16815260200190815260200160002086604051613d1f919061536a565b9081526020016040518091039020604051806080016040529081600082018054613d489061541c565b80601f0160208091040260200160405190810160405280929190818152602001828054613d749061541c565b8015613dc15780601f10613d9657610100808354040283529160200191613dc1565b820191906000526020600020905b815481529060010190602001808311613da457829003601f168201915b505050505081526020016001820160009054906101000a900473ffffffffffffffffffffffffffffffffffffffff1673ffffffffffffffffffffffffffffffffffffffff1673ffffffffffffffffffffffffffffffffffffffff1681526020016001820160149054906101000a900460ff166005811115613e4557613e44614969565b5b6005811115613e5757613e56614969565b5b81526020016001820160159054906101000a900460ff166003811115613e8057613e7f614969565b5b6003811115613e9257613e91614969565b5b81525050905060016005811115613eac57613eab614969565b5b81604001516005811115613ec357613ec2614969565b5b148015613f595750600360008873ffffffffffffffffffffffffffffffffffffffff1673ffffffffffffffffffffffffffffffffffffffff16815260200190815260200160002060003373ffffffffffffffffffffffffffffffffffffffff1673ffffffffffffffffffffffffffffffffffffffff16815260200190815260200160002060000160019054906101000a900460ff165b15613f795780600001518160400151826060015194509450945050614319565b60026005811115613f8d57613f8c614969565b5b81604001516005811115613fa457613fa3614969565b5b14801561403a5750600360008873ffffffffffffffffffffffffffffffffffffffff1673ffffffffffffffffffffffffffffffffffffffff16815260200190815260200160002060003373ffffffffffffffffffffffffffffffffffffffff1673ffffffffffffffffffffffffffffffffffffffff16815260200190815260200160002060000160029054906101000a900460ff165b1561405a5780600001518160400151826060015194509450945050614319565b6003600581111561406e5761406d614969565b5b8160400151600581111561408557614084614969565b5b14801561411b5750600360008873ffffffffffffffffffffffffffffffffffffffff1673ffffffffffffffffffffffffffffffffffffffff16815260200190815260200160002060003373ffffffffffffffffffffffffffffffffffffffff1673ffffffffffffffffffffffffffffffffffffffff16815260200190815260200160002060000160069054906101000a900460ff165b1561413b5780600001518160400151826060015194509450945050614319565b6004600581111561414f5761414e614969565b5b8160400151600581111561416657614165614969565b5b1480156141fc5750600360008873ffffffffffffffffffffffffffffffffffffffff1673ffffffffffffffffffffffffffffffffffffffff16815260200190815260200160002060003373ffffffffffffffffffffffffffffffffffffffff1673ffffffffffffffffffffffffffffffffffffffff16815260200190815260200160002060000160079054906101000a900460ff165b1561421c5780600001518160400151826060015194509450945050614319565b60058081111561422f5761422e614969565b5b8160400151600581111561424657614245614969565b5b1480156142dc5750600360008873ffffffffffffffffffffffffffffffffffffffff1673ffffffffffffffffffffffffffffffffffffffff16815260200190815260200160002060003373ffffffffffffffffffffffffffffffffffffffff1673ffffffffffffffffffffffffffffffffffffffff16815260200190815260200160002060000160089054906101000a900460ff165b156142fc5780600001518160400151826060015194509450945050614319565b600080604051806020016040528060008152509190945094509450505b509250925092565b6000876000600381111561433857614337614969565b5b600160008373ffffffffffffffffffffffffffffffffffffffff1673ffffffffffffffffffffffffffffffffffffffff16815260200190815260200160002060010160009054906101000a900460ff16600381111561439a57614399614969565b5b146143da576040517f08c379a00000000000000000000000000000000000000000000000000000000081526004016143d190615702565b60405180910390fd5b60405180610100016040528089815260200160016003811115614400576143ff614969565b5b81526020018881526020018781526020018681526020018581526020018481526020013373ffffffffffffffffffffffffffffffffffffffff16815250600160008b73ffffffffffffffffffffffffffffffffffffffff1673ffffffffffffffffffffffffffffffffffffffff16815260200190815260200160002060008201518160000190805190602001906144989291906145b4565b5060208201518160010160006101000a81548160ff021916908360038111156144c4576144c3614969565b5b021790555060408201518160020190805190602001906144e59291906145b4565b5060608201518160030190805190602001906145029291906145b4565b50608082015181600401908051906020019061451f9291906145b4565b5060a082015181600501908051906020019061453c9291906145b4565b5060c08201518160060190805190602001906145599291906145b4565b5060e08201518160070160006101000a81548173ffffffffffffffffffffffffffffffffffffffff021916908373ffffffffffffffffffffffffffffffffffffffff1602179055509050506001915050979650505050505050565b8280546145c09061541c565b90600052602060002090601f0160209004810192826145e25760008555614629565b82601f106145fb57805160ff1916838001178555614629565b82800160010185558215614629579182015b8281111561462857825182559160200191906001019061460d565b5b509050614636919061467a565b5090565b5080546146469061541c565b6000825580601f106146585750614677565b601f016020900490600052602060002090810190614676919061467a565b5b50565b5b8082111561469357600081600090555060010161467b565b5090565b6000604051905090565b600080fd5b600080fd5b600073ffffffffffffffffffffffffffffffffffffffff82169050919050565b60006146d6826146ab565b9050919050565b6146e6816146cb565b81146146f157600080fd5b50565b600081359050614703816146dd565b92915050565b600080fd5b600080fd5b6000601f19601f8301169050919050565b7f4e487b7100000000000000000000000000000000000000000000000000000000600052604160045260246000fd5b61475c82614713565b810181811067ffffffffffffffff8211171561477b5761477a614724565b5b80604052505050565b600061478e614697565b905061479a8282614753565b919050565b600067ffffffffffffffff8211156147ba576147b9614724565b5b6147c382614713565b9050602081019050919050565b82818337600083830152505050565b60006147f26147ed8461479f565b614784565b90508281526020810184848401111561480e5761480d61470e565b5b6148198482856147d0565b509392505050565b600082601f83011261483657614835614709565b5b81356148468482602086016147df565b91505092915050565b60008060408385031215614866576148656146a1565b5b6000614874858286016146f4565b925050602083013567ffffffffffffffff811115614895576148946146a6565b5b6148a185828601614821565b9150509250929050565b60008115159050919050565b6148c0816148ab565b82525050565b60006020820190506148db60008301846148b7565b92915050565b600081519050919050565b600082825260208201905092915050565b60005b8381101561491b578082015181840152602081019050614900565b8381111561492a576000848401525b50505050565b600061493b826148e1565b61494581856148ec565b93506149558185602086016148fd565b61495e81614713565b840191505092915050565b7f4e487b7100000000000000000000000000000000000000000000000000000000600052602160045260246000fd5b600481106149a9576149a8614969565b5b50565b60008190506149ba82614998565b919050565b60006149ca826149ac565b9050919050565b6149da816149bf565b82525050565b600060e08201905081810360008301526149fa818a614930565b9050614a0960208301896149d1565b8181036040830152614a1b8188614930565b90508181036060830152614a2f8187614930565b90508181036080830152614a438186614930565b905081810360a0830152614a578185614930565b905081810360c0830152614a6b8184614930565b905098975050505050505050565b60078110614a8657600080fd5b50565b600081359050614a9881614a79565b92915050565b600080600060608486031215614ab757614ab66146a1565b5b6000614ac5868287016146f4565b935050602084013567ffffffffffffffff811115614ae657614ae56146a6565b5b614af286828701614821565b9250506040614b0386828701614a89565b9150509250925092565b614b16816148ab565b8114614b2157600080fd5b50565b600081359050614b3381614b0d565b92915050565b60008060008060008060008060006101208a8c031215614b5c57614b5b6146a1565b5b6000614b6a8c828d016146f4565b9950506020614b7b8c828d01614b24565b9850506040614b8c8c828d01614b24565b9750506060614b9d8c828d01614b24565b9650506080614bae8c828d01614b24565b95505060a0614bbf8c828d01614b24565b94505060c0614bd08c828d01614b24565b93505060e0614be18c828d01614b24565b925050610100614bf38c828d01614b24565b9150509295985092959850929598565b600060208284031215614c1957614c186146a1565b5b6000614c27848285016146f4565b91505092915050565b614c39816146cb565b82525050565b6000602082019050614c546000830184614c30565b92915050565b6000602082019050614c6f60008301846149d1565b92915050565b60078110614c8657614c85614969565b5b50565b6000819050614c9782614c75565b919050565b6000614ca782614c89565b9050919050565b614cb781614c9c565b82525050565b60006060820190508181036000830152614cd78186614930565b9050614ce66020830185614cae565b614cf360408301846149d1565b949350505050565b600060208284031215614d1157614d106146a1565b5b600082013567ffffffffffffffff811115614d2f57614d2e6146a6565b5b614d3b84828501614821565b91505092915050565b60068110614d5557614d54614969565b5b50565b6000819050614d6682614d44565b919050565b6000614d7682614d58565b9050919050565b614d8681614d6b565b82525050565b60006060820190508181036000830152614da68186614930565b9050614db56020830185614d7d565b614dc260408301846149d1565b949350505050565b600080600080600060a08688031215614de657614de56146a1565b5b600086013567ffffffffffffffff811115614e0457614e036146a6565b5b614e1088828901614821565b955050602086013567ffffffffffffffff811115614e3157614e306146a6565b5b614e3d88828901614821565b945050604086013567ffffffffffffffff811115614e5e57614e5d6146a6565b5b614e6a88828901614821565b935050606086013567ffffffffffffffff811115614e8b57614e8a6146a6565b5b614e9788828901614821565b925050608086013567ffffffffffffffff811115614eb857614eb76146a6565b5b614ec488828901614821565b9150509295509295909350565b60006020820190508181036000830152614eeb8184614930565b905092915050565b60006080820190508181036000830152614f0d8187614930565b9050614f1c6020830186614c30565b614f296040830185614d7d565b614f3660608301846149d1565b95945050505050565b6000610100820190508181036000830152614f5a818b614930565b9050614f69602083018a6149d1565b8181036040830152614f7b8189614930565b90508181036060830152614f8f8188614930565b90508181036080830152614fa38187614930565b905081810360a0830152614fb78186614930565b905081810360c0830152614fcb8185614930565b9050614fda60e0830184614c30565b9998505050505050505050565b60068110614ff457600080fd5b50565b60008135905061500681614fe7565b92915050565b60008060008060808587031215615026576150256146a1565b5b600085013567ffffffffffffffff811115615044576150436146a6565b5b61505087828801614821565b9450506020615061878288016146f4565b935050604061507287828801614ff7565b925050606085013567ffffffffffffffff811115615093576150926146a6565b5b61509f87828801614821565b91505092959194509250565b600080604083850312156150c2576150c16146a1565b5b60006150d0858286016146f4565b92505060206150e1858286016146f4565b9150509250929050565b600061012082019050615101600083018c6149d1565b61510e602083018b6148b7565b61511b604083018a6148b7565b61512860608301896148b7565b61513560808301886148b7565b61514260a08301876148b7565b61514f60c08301866148b7565b61515c60e08301856148b7565b61516a6101008301846148b7565b9a9950505050505050505050565b600080600080600080600060e0888a031215615197576151966146a1565b5b60006151a58a828b016146f4565b975050602088013567ffffffffffffffff8111156151c6576151c56146a6565b5b6151d28a828b01614821565b965050604088013567ffffffffffffffff8111156151f3576151f26146a6565b5b6151ff8a828b01614821565b955050606088013567ffffffffffffffff8111156152205761521f6146a6565b5b61522c8a828b01614821565b945050608088013567ffffffffffffffff81111561524d5761524c6146a6565b5b6152598a828b01614821565b93505060a088013567ffffffffffffffff81111561527a576152796146a6565b5b6152868a828b01614821565b92505060c088013567ffffffffffffffff8111156152a7576152a66146a6565b5b6152b38a828b01614821565b91505092959891949750929550565b7f4e6f7420612076616c6964204f7267616e697a6174696f6e0000000000000000600082015250565b60006152f86018836148ec565b9150615303826152c2565b602082019050919050565b60006020820190508181036000830152615327816152eb565b9050919050565b600081905092915050565b6000615344826148e1565b61534e818561532e565b935061535e8185602086016148fd565b80840191505092915050565b60006153768284615339565b915081905092915050565b7f4e6f7420612076616c696420437573746f6d6572000000000000000000000000600082015250565b60006153b76014836148ec565b91506153c282615381565b602082019050919050565b600060208201905081810360008301526153e6816153aa565b9050919050565b7f4e487b7100000000000000000000000000000000000000000000000000000000600052602260045260246000fd5b6000600282049050600182168061543457607f821691505b60208210811415615448576154476153ed565b5b50919050565b7f4e6f7420616e2041646d696e2055736572212100000000000000000000000000600082015250565b60006154846013836148ec565b915061548f8261544e565b602082019050919050565b600060208201905081810360008301526154b381615477565b9050919050565b7f4f726720416c7265616479205265676973746572656421210000000000000000600082015250565b60006154f06018836148ec565b91506154fb826154ba565b602082019050919050565b6000602082019050818103600083015261551f816154e3565b9050919050565b7f424756205265717565737420646f6573206e6f742065786973742e0000000000600082015250565b600061555c601b836148ec565b915061556782615526565b602082019050919050565b6000602082019050818103600083015261558b8161554f565b9050919050565b7f506c656173652041736b205573657220746f20696e697469617465207665726960008201527f6669636174696f6e20726571756573742066697273742e000000000000000000602082015250565b60006155ee6037836148ec565b91506155f982615592565b604082019050919050565b6000602082019050818103600083015261561d816155e1565b9050919050565b7f4247562052657175657374206973206e6f7420617070726f766564206279206360008201527f7573746f6d6572207965742e0000000000000000000000000000000000000000602082015250565b6000615680602c836148ec565b915061568b82615624565b604082019050919050565b600060208201905081810360008301526156af81615673565b9050919050565b7f437573746f6d657220416c726561647920526567697374657265642121000000600082015250565b60006156ec601d836148ec565b91506156f7826156b6565b602082019050919050565b6000602082019050818103600083015261571b816156df565b905091905056fea264697066735822122096165a9550eae5f273f1a5ec3a8218cf834adc31b0687277e6c2bdedf347351e64736f6c634300080a0033",
  "immutableReferences": {},
  "source": "// SPDX-License-Identifier: MIT\r\npragma solidity >=0.4.22 <0.9.0;\r\n\r\ncontract SDV{\r\n    address public accounOwner;\r\n\r\n\tenum State { NotExist, Pending, Approved, Rejected }\r\n\tenum DocType { NotExist, Education, Employment, AadharCard, PanCard, DrivingLicense}\r\n\tenum OrgType { NotExist, Education, Employment, AadharCard, PanCard, DrivingLicense, TPVA}\r\n\t\r\n\tstruct User {\r\n\t\tstring uname;\r\n\t\tState state;\r\n\t\tstring permanentAddress;\r\n\t\tstring currentAddress;\r\n\t\tstring email;\r\n\t\tstring phone;\r\n\t\tstring refEmail;\r\n\t\taddress createdBy;\r\n\t}\r\n\t\r\n\tstruct Document {\r\n\t    string name;\r\n\t    address issuedby;\r\n\t    DocType docType;\r\n\t    State state;\r\n\t}\r\n\t\r\n\tstruct Organisation {\r\n        string oname;\r\n        OrgType otype;\r\n        State state;\r\n    }\r\n\r\n    struct BGVRequest {\r\n        State state;\r\n        bool canViewEducation;\r\n        bool canViewEmployer;\r\n        bool canViewAddress;\r\n        bool canViewReferences;\r\n        bool canViewContactDetails;\r\n        bool canViewAadhar;\r\n        bool canViewPan;\r\n        bool canViewDL;\r\n    }\r\n\r\n\tmapping (address => User) public users;\r\n\tmapping (address => Organisation) public organisations;\r\n\tmapping (address => mapping (address => BGVRequest)) public kycRequests;\r\n\tmapping (address => mapping (string  => Document)) public documents;\r\n\tmapping (address => string) public userDocuments;\r\n\tmapping (string => Document) documentDetails;\r\n\t\r\n\t\r\n\tconstructor() {\r\n\t\taccounOwner = msg.sender;\r\n\t}\r\n    \r\n    //Only Admin\r\n    modifier onlyOwner(){\r\n        require (accounOwner == msg.sender, \"Not an Admin User!!\");\r\n        _;\r\n    }\r\n    \r\n    //Check if customer is already registered\r\n    modifier notRegisteredCustomer(address _newUser) {\r\n\t\trequire(users[_newUser].state == State.NotExist, \"Customer Already Registered!!\");\r\n\t\t_;\r\n    }\r\n    \r\n    //Check if Org is already registered\r\n    modifier notRegisteredOrg(address _newOrg) {\r\n\t\trequire(organisations[_newOrg].state == State.NotExist, \"Org Already Registered!!\");\r\n\t\t_;\r\n    }\r\n    \r\n     //Check for a valid Org\r\n    modifier registeredOrg(address _oAddress) {\r\n\t\trequire(organisations[_oAddress].state != State.NotExist, \"Not a valid Organization\");\r\n\t\t_;\r\n    }\r\n    \r\n    //Check for a valid Customer\r\n    modifier registeredCustomer(address _uAddress) {\r\n\t\trequire(users[_uAddress].state != State.NotExist, \"Not a valid Customer\");\r\n\t\t_;\r\n    }\r\n\t\r\n\t// All: Create new Customer\r\n\tfunction addNewCustomer(address _userAddress, string memory _name, string memory _pAddress,string memory _cAddress, string memory _email, string memory _phone, string memory _refEmail) external notRegisteredCustomer (_userAddress)  returns (bool success) {\r\n\t\tusers[_userAddress] = User(_name, State.Pending, _pAddress, _cAddress, _email, _phone, _refEmail, msg.sender);\r\n\t\treturn true;\r\n\t}\r\n\t\r\n\t//Admin: Create New Org \r\n\tfunction addNewOrg(address _oAddress, string memory _name, OrgType _type) external onlyOwner notRegisteredOrg(_oAddress) returns (bool success) {\r\n\t\torganisations[_oAddress] = Organisation(_name, _type, State.Approved);\r\n\t\treturn true;\r\n\t}\r\n\r\n    //Org: Verify a customer\r\n\tfunction verifyCustomer(address _uaddress) external registeredOrg(msg.sender) returns (bool success){\r\n\t    users[_uaddress].state = State.Approved;\r\n\t    return true;\r\n    }\r\n    \r\n    //Org: Verify a document\r\n\tfunction verifyDocument(address _uaddress, string memory _docId) external registeredOrg(msg.sender) returns (bool success){\r\n\t    documents[_uaddress][_docId].state = State.Approved;\r\n\t    return true;\r\n    }\r\n    \r\n     //Org: Reject a document\r\n\tfunction rejectDocument(address _uaddress, string memory _docId) external registeredOrg(msg.sender) returns (bool success){\r\n\t    documents[_uaddress][_docId].state = State.Rejected;\r\n\t    return true;\r\n    }\r\n    \r\n    //Org: Send BGV Request to customer\r\n\tfunction sendBgvRequest(address _uAddress) external registeredOrg(msg.sender) returns (bool success) {\r\n\t    require(users[_uAddress].state == State.Approved, \"Please Ask User to initiate verification request first.\");\r\n        kycRequests[_uAddress][msg.sender] = BGVRequest(State.Pending, false, false, false , false, false, false, false, false);\r\n        //emit NewKYCRequest(_uAddress, msg.sender);\r\n        return true;\r\n    }\r\n    \r\n    //Org: Check KYC Request status for a customer\r\n    function checkBgvStatus(address _uAddress) external view registeredOrg(msg.sender) returns (State) {\r\n        \r\n        return kycRequests[_uAddress][msg.sender].state;\r\n    }\r\n    \r\n    // Org: Get User Details\r\n\tfunction getUserBasicDetails(address _userAddress) external view registeredOrg(msg.sender) returns (string memory, State, string memory, string memory, string memory, string memory, string memory) {\r\n\t\t\r\n\t\trequire(kycRequests[_userAddress][msg.sender].state == State.Approved, \"BGV Request is not approved by customer yet.\");\r\n\t\t\r\n\t\tUser memory user = users[_userAddress];\r\n\t\t\r\n\t\tif(!kycRequests[_userAddress][msg.sender].canViewAddress)\r\n\t\t{\r\n\t\t    user.permanentAddress = \"\";\r\n\t\t    user.currentAddress = \"\";\r\n\t\t}\r\n\t\t\r\n\t\tif(!kycRequests[_userAddress][msg.sender].canViewContactDetails)\r\n\t\t{\r\n\t\t    user.email = \"\";\r\n\t\t    user.phone = \"\";\r\n\t\t}\r\n\t\t\r\n\t\tif(!kycRequests[_userAddress][msg.sender].canViewReferences)\r\n\t\t{\r\n\t\t    user.refEmail = \"\";\r\n\t\t}\r\n\t\t\r\n\t   return (user.uname, user.state, user.permanentAddress, user.currentAddress, user.email, user.phone, user.refEmail);\r\n\t}\r\n    \r\n    // Org: Get a User Document\r\n\tfunction getUserDocument(address _userAddress, string memory docId ) external view registeredOrg(msg.sender) returns (string memory, DocType , State) {\r\n\t\t\r\n\t\trequire(kycRequests[_userAddress][msg.sender].state == State.Approved, \"BGV Request is not approved by customer yet.\");\r\n\t\t\r\n\t\t\r\n\t        Document memory doc = documents[_userAddress][docId];\r\n\r\n\t        if(doc.docType == DocType.Education && kycRequests[_userAddress][msg.sender].canViewEducation)\r\n    \t\t{\r\n    \t\t    return (doc.name, doc.docType, doc.state);\r\n    \t\t}\r\n    \t\telse if(doc.docType == DocType.Employment && kycRequests[_userAddress][msg.sender].canViewEmployer)\r\n    \t\t{\r\n    \t\t   return (doc.name, doc.docType, doc.state);\r\n    \t\t}\r\n    \t\telse if(doc.docType == DocType.AadharCard && kycRequests[_userAddress][msg.sender].canViewAadhar)\r\n    \t\t{\r\n    \t\t   return (doc.name, doc.docType, doc.state);\r\n    \t\t}\r\n    \t\telse if(doc.docType == DocType.PanCard && kycRequests[_userAddress][msg.sender].canViewPan)\r\n    \t\t{\r\n    \t\t     return (doc.name, doc.docType, doc.state);\r\n    \t\t}\r\n    \t\telse if(doc.docType == DocType.DrivingLicense && kycRequests[_userAddress][msg.sender].canViewDL)\r\n    \t\t{\r\n    \t\t    return (doc.name, doc.docType, doc.state);\r\n    \t\t}\r\n    \t\telse\r\n    \t\t{\r\n    \t\t    return (\"\", DocType.NotExist, State.NotExist);\r\n    \t\t}\r\n\t}\r\n\t\r\n\t// Customer: Get my Document\r\n\tfunction getMyDocument(string memory docId ) external view registeredCustomer(msg.sender) returns (string memory, DocType , State) {\r\n\t        Document memory doc = documents[msg.sender][docId];\r\n\t       return (doc.name, doc.docType, doc.state);\r\n\t}\r\n\t\r\n\t\r\n\tfunction getMyBasicDetails() external view registeredCustomer(msg.sender) returns (string memory, State, string memory, string memory, string memory, string memory, string memory) {\r\n\t\tUser memory user = users[msg.sender];\r\n\t    return (user.uname, user.state, user.permanentAddress, user.currentAddress, user.email, user.phone, user.refEmail);\r\n\t}\r\n\t\r\n\t //Customer: Send BGV Request to customer\r\n\tfunction InitiateVerificationRequest(address _oAddress) external registeredCustomer(msg.sender) returns (bool success) {\r\n    kycRequests[msg.sender][_oAddress] = BGVRequest(State.Approved, true, true, true , true, true, true, true, true);\r\n    //emit NewKYCRequest(_uAddress, msg.sender);\r\n    return true;\r\n    }\r\n\t\r\n\t//Customer: update Customer\r\n\tfunction updateCustomer(string memory _name, string memory _pAddress,string memory _cAddress, string memory _phone, string memory _refEmail) external registeredCustomer(msg.sender) returns (bool success) {\r\n\t\t//require(_userAddress == msg.sender,\"You can update your own details only.\");\r\n\t\tusers[msg.sender].uname = _name;\r\n\t\tusers[msg.sender].permanentAddress = _pAddress;\r\n\t\tusers[msg.sender].currentAddress = _cAddress;\r\n\t\tusers[msg.sender].phone = _phone;\r\n\t\tusers[msg.sender].refEmail = _refEmail;\r\n\t\tusers[msg.sender].state = State.Pending;\r\n\t\t\r\n\t\treturn true;\r\n\t}\r\n    \r\n    //User: Upload a document\r\n\tfunction addDocument(string memory _docName, address _IssuedBy, DocType _doctype, string memory _docHash) external registeredCustomer(msg.sender) returns (bool success){\r\n\t  // userDocuments[msg.sender] = _docHash;\r\n\t  //documentDetails[_docHash] = Document(_docName,_IssuedBy,_doctype, State.Pending);\r\n\t  documents[msg.sender][_docHash] = Document(_docName,_IssuedBy,_doctype, State.Pending);\r\n\t   return true;\r\n    }\r\n    \r\n   \r\n    \r\n    //User: Remove a document\r\n\tfunction removeDocument(string memory _docHash) external registeredCustomer(msg.sender) returns (bool success){\r\n\t    //delete documentDetails[_docHash];\r\n\t    delete documents[msg.sender][_docHash];\r\n\t    return true;\r\n    }\r\n    \r\n     //Customer: Approve KYC Request\r\n    function approveBgvRequest(address _oAddress, bool _canViewEducation, bool _canViewEmployer, bool _canViewAddress, bool _canViewReferences, bool _canViewContactDetails, bool _canViewAadhar, bool _canViewPan, bool _canViewDL) external registeredCustomer(msg.sender) returns (bool success){\r\n        require(kycRequests[msg.sender][_oAddress].state != State.NotExist, \"BGV Request does not exist.\");\r\n        kycRequests[msg.sender][_oAddress].state = State.Approved;\r\n        kycRequests[msg.sender][_oAddress].canViewEducation = _canViewEducation;\r\n        kycRequests[msg.sender][_oAddress].canViewEmployer = _canViewEmployer;\r\n        kycRequests[msg.sender][_oAddress].canViewAddress = _canViewAddress;\r\n        kycRequests[msg.sender][_oAddress].canViewReferences = _canViewReferences;\r\n        kycRequests[msg.sender][_oAddress].canViewContactDetails = _canViewContactDetails;\r\n        kycRequests[msg.sender][_oAddress].canViewAadhar = _canViewAadhar;\r\n        kycRequests[msg.sender][_oAddress].canViewPan = _canViewPan;\r\n        kycRequests[msg.sender][_oAddress].canViewDL = _canViewDL;\r\n        \r\n        //emit KYCRequestApproved(msg.sender, _oAddress);\r\n        return true;\r\n    }\r\n    \r\n    //Customer: Reject KYC Request\r\n    function rejectBgvRequest(address _oAddress) external registeredCustomer(msg.sender) returns (bool success){\r\n        require(kycRequests[msg.sender][_oAddress].state != State.NotExist, \"BGV Request does not exist.\");\r\n        kycRequests[msg.sender][_oAddress].state = State.Rejected;\r\n        //emit KYCRequestApproved(msg.sender, _oAddress);\r\n        return true;\r\n        \r\n    }\r\n    \r\n   \r\n}\r\n",
  "sourcePath": "D:\\Here You Go\\BlockChain\\SDV\\contracts\\SDV.sol",
  "compiler": {
    "name": "solc",
    "version": "0.8.10+commit.fc410830.Emscripten.clang"
  },
  "schemaVersion": "3.4.3",
  "updatedAt": "2022-03-20T14:48:43.702Z",
  "devdoc": {
    "kind": "dev",
    "methods": {},
    "version": 1
  },
  "userdoc": {
    "kind": "user",
    "methods": {},
    "version": 1
  }
}